{
  "contractName": "Healthchain",
  "abi": [
    {
      "anonymous": false,
      "inputs": [
        {
          "indexed": true,
          "internalType": "address",
          "name": "cliente",
          "type": "address"
        }
      ],
      "name": "ClienteAtualizado",
      "type": "event"
    },
    {
      "anonymous": false,
      "inputs": [
        {
          "indexed": true,
          "internalType": "address",
          "name": "cliente",
          "type": "address"
        },
        {
          "indexed": true,
          "internalType": "address",
          "name": "instituicao",
          "type": "address"
        }
      ],
      "name": "ClienteCadastrado",
      "type": "event"
    },
    {
      "anonymous": false,
      "inputs": [
        {
          "indexed": true,
          "internalType": "address",
          "name": "cliente",
          "type": "address"
        }
      ],
      "name": "ClienteExcluido",
      "type": "event"
    },
    {
      "anonymous": false,
      "inputs": [
        {
          "indexed": true,
          "internalType": "address",
          "name": "conta",
          "type": "address"
        },
        {
          "indexed": false,
          "internalType": "uint256",
          "name": "valor",
          "type": "uint256"
        }
      ],
      "name": "DepositoRealizado",
      "type": "event"
    },
    {
      "anonymous": false,
      "inputs": [
        {
          "indexed": true,
          "internalType": "address",
          "name": "instituicao",
          "type": "address"
        },
        {
          "indexed": false,
          "internalType": "string",
          "name": "nome",
          "type": "string"
        }
      ],
      "name": "InstituicaoCadastrada",
      "type": "event"
    },
    {
      "anonymous": false,
      "inputs": [
        {
          "indexed": true,
          "internalType": "address",
          "name": "socorrista",
          "type": "address"
        },
        {
          "indexed": true,
          "internalType": "address",
          "name": "instituicao",
          "type": "address"
        }
      ],
      "name": "SocorristaCadastrado",
      "type": "event"
    },
    {
      "anonymous": false,
      "inputs": [
        {
          "indexed": true,
          "internalType": "address",
          "name": "socorrista",
          "type": "address"
        }
      ],
      "name": "SocorristaExcluido",
      "type": "event"
    },
    {
      "inputs": [
        {
          "internalType": "address",
          "name": "",
          "type": "address"
        }
      ],
      "name": "clienteParaInstituicao",
      "outputs": [
        {
          "internalType": "address",
          "name": "",
          "type": "address"
        }
      ],
      "stateMutability": "view",
      "type": "function"
    },
    {
      "inputs": [
        {
          "internalType": "address",
          "name": "",
          "type": "address"
        }
      ],
      "name": "socorristaParaInstituicao",
      "outputs": [
        {
          "internalType": "address",
          "name": "",
          "type": "address"
        }
      ],
      "stateMutability": "view",
      "type": "function"
    },
    {
      "inputs": [
        {
          "internalType": "string",
          "name": "_nomeInstituicao",
          "type": "string"
        }
      ],
      "name": "cadastrarInstituicao",
      "outputs": [],
      "stateMutability": "nonpayable",
      "type": "function"
    },
    {
      "inputs": [
        {
          "internalType": "string",
          "name": "_comorbidades",
          "type": "string"
        },
        {
          "internalType": "string",
          "name": "_alergias",
          "type": "string"
        },
        {
          "internalType": "string",
          "name": "_tipoSanguineo",
          "type": "string"
        },
        {
          "internalType": "address",
          "name": "_instituicao",
          "type": "address"
        }
      ],
      "name": "cadastrarCliente",
      "outputs": [],
      "stateMutability": "payable",
      "type": "function"
    },
    {
      "inputs": [
        {
          "internalType": "string",
          "name": "_comorbidades",
          "type": "string"
        },
        {
          "internalType": "string",
          "name": "_alergias",
          "type": "string"
        }
      ],
      "name": "editarCliente",
      "outputs": [],
      "stateMutability": "nonpayable",
      "type": "function"
    },
    {
      "inputs": [
        {
          "internalType": "address",
          "name": "_cliente",
          "type": "address"
        }
      ],
      "name": "excluirCliente",
      "outputs": [],
      "stateMutability": "nonpayable",
      "type": "function"
    },
    {
      "inputs": [
        {
          "internalType": "address",
          "name": "_socorrista",
          "type": "address"
        },
        {
          "internalType": "string",
          "name": "_crm",
          "type": "string"
        }
      ],
      "name": "cadastrarSocorrista",
      "outputs": [],
      "stateMutability": "nonpayable",
      "type": "function"
    },
    {
      "inputs": [
        {
          "internalType": "address",
          "name": "_socorrista",
          "type": "address"
        }
      ],
      "name": "excluirSocorrista",
      "outputs": [],
      "stateMutability": "nonpayable",
      "type": "function"
    },
    {
      "inputs": [],
      "name": "depositar",
      "outputs": [],
      "stateMutability": "payable",
      "type": "function"
    },
    {
      "inputs": [],
      "name": "getSaldo",
      "outputs": [
        {
          "internalType": "uint256",
          "name": "",
          "type": "uint256"
        }
      ],
      "stateMutability": "view",
      "type": "function"
    },
    {
      "inputs": [
        {
          "internalType": "address",
          "name": "_cliente",
          "type": "address"
        }
      ],
      "name": "getCliente",
      "outputs": [
        {
          "internalType": "string",
          "name": "",
          "type": "string"
        },
        {
          "internalType": "string",
          "name": "",
          "type": "string"
        },
        {
          "internalType": "string",
          "name": "",
          "type": "string"
        }
      ],
      "stateMutability": "view",
      "type": "function"
    },
    {
      "inputs": [
        {
          "internalType": "address",
          "name": "_socorrista",
          "type": "address"
        }
      ],
      "name": "getSocorrista",
      "outputs": [
        {
          "internalType": "address",
          "name": "",
          "type": "address"
        },
        {
          "internalType": "uint256",
          "name": "",
          "type": "uint256"
        },
        {
          "internalType": "string",
          "name": "",
          "type": "string"
        },
        {
          "internalType": "address",
          "name": "",
          "type": "address"
        }
      ],
      "stateMutability": "view",
      "type": "function"
    },
    {
      "inputs": [
        {
          "internalType": "address",
          "name": "_instituicao",
          "type": "address"
        }
      ],
      "name": "getInstituicao",
      "outputs": [
        {
          "internalType": "address",
          "name": "",
          "type": "address"
        },
        {
          "internalType": "uint256",
          "name": "",
          "type": "uint256"
        },
        {
          "internalType": "string",
          "name": "",
          "type": "string"
        }
      ],
      "stateMutability": "view",
      "type": "function"
    }
  ],
  "bytecode": "0x608060405234801561001057600080fd5b50611990806100206000396000f3fe6080604052600436106100c25760003560e01c80637c6dd62c1161007f578063a73022f911610059578063a73022f914610215578063bc4e750014610235578063c5a480f414610255578063e2eec9a714610268576100c2565b80637c6dd62c14610198578063a1918b88146101c5578063a6d5c125146101e5576100c2565b8063149e93f5146100c75780633d922f90146100ff57806341b326e61461010957806358e93baa146101295780636abf0bc7146101495780637c43427014610169575b600080fd5b3480156100d357600080fd5b506100e76100e23660046111da565b61028a565b6040516100f6939291906113cd565b60405180910390f35b6101076103bc565b005b34801561011557600080fd5b506101076101243660046111da565b6104a2565b34801561013557600080fd5b50610107610144366004611247565b6105ef565b34801561015557600080fd5b506101076101643660046111da565b6106cc565b34801561017557600080fd5b506101896101843660046111da565b6107fe565b6040516100f69392919061144c565b3480156101a457600080fd5b506101b86101b33660046111da565b610a80565b6040516100f691906113b9565b3480156101d157600080fd5b506101b86101e03660046111da565b610a9b565b3480156101f157600080fd5b506102056102003660046111da565b610ab6565b6040516100f694939291906113fd565b34801561022157600080fd5b50610107610230366004611282565b610c38565b34801561024157600080fd5b506101076102503660046111fb565b610cd9565b6101076102633660046112d9565b610e0b565b34801561027457600080fd5b5061027d610ff7565b6040516100f691906118bb565b6001600160a01b0381811660009081526002602052604081205490918291606091166102d15760405162461bcd60e51b81526004016102c890611578565b60405180910390fd5b6001600160a01b0380851660009081526002602081815260408084208151606081018352815490961686526001810154928601929092529181018054939493919284019161031e906118f3565b80601f016020809104026020016040519081016040528092919081815260200182805461034a906118f3565b80156103975780601f1061036c57610100808354040283529160200191610397565b820191906000526020600020905b81548152906001019060200180831161037a57829003601f168201915b5050509190925250508151602083015160409093015190989297509550909350505050565b336000908152602081905260409020546001600160a01b0316156104075733600090815260208190526040812060010180543492906103fc9084906118c4565b9091555061045f9050565b336000908152600160205260409020546001600160a01b0316156104475733600090815260016020819052604082200180543492906103fc9084906118c4565b60405162461bcd60e51b81526004016102c890611748565b336001600160a01b03167f38471ae7f91e789f14262fd93c18c38c27b89700fe18406ca1b6b83f683c232c3460405161049891906118bb565b60405180910390a2565b336000908152600260205260409020546001600160a01b03166104d75760405162461bcd60e51b81526004016102c8906114c6565b6001600160a01b038181166000908152602081905260409020541661050e5760405162461bcd60e51b81526004016102c890611548565b6001600160a01b038181166000908152600360205260409020541633146105475760405162461bcd60e51b81526004016102c8906117d1565b6001600160a01b038116600090815260208190526040812080546001600160a01b031916815560018101829055906105826002830182611065565b610590600383016000611065565b61059e600483016000611065565b50506001600160a01b03811660008181526003602052604080822080546001600160a01b0319169055517f1139652d21360d0c70a0672d49fe4ca61de436c58dffe3b088fa8a950ea2c2c89190a250565b336000908152600260205260409020546001600160a01b0316156106255760405162461bcd60e51b81526004016102c89061179a565b604080516060810182523380825260006020808401828152848601878152938352600280835295909220845181546001600160a01b0319166001600160a01b0390911617815591516001830155915180519394919361068c939285019291909101906110a4565b50506040513391507fd898890cd6102e3e255029ba1b69fe2c1df6a86bfa724cd138d1467125122b98906106c1908490611439565b60405180910390a250565b336000908152600260205260409020546001600160a01b03166107015760405162461bcd60e51b81526004016102c8906115af565b6001600160a01b03818116600090815260016020526040902054166107385760405162461bcd60e51b81526004016102c89061148f565b6001600160a01b038181166000908152600460205260409020541633146107715760405162461bcd60e51b81526004016102c89061167c565b6001600160a01b0381166000908152600160208190526040822080546001600160a01b0319168155908101829055906107ad6002830182611065565b50506001600160a01b03811660008181526004602052604080822080546001600160a01b0319169055517ff213481f3b337f6f1ed95c21fb6ffeb497b6db8b444e2877a4c79ea6c04d5bb49190a250565b33600090815260016020526040902054606090819081906001600160a01b031661083a5760405162461bcd60e51b81526004016102c890611827565b6001600160a01b03848116600090815260208190526040902054166108715760405162461bcd60e51b81526004016102c890611548565b6001600160a01b03808516600090815260208181526040808320815160a08101835281549095168552600181015492850192909252600282018054939493918401916108bc906118f3565b80601f01602080910402602001604051908101604052809291908181526020018280546108e8906118f3565b80156109355780601f1061090a57610100808354040283529160200191610935565b820191906000526020600020905b81548152906001019060200180831161091857829003601f168201915b5050505050815260200160038201805461094e906118f3565b80601f016020809104026020016040519081016040528092919081815260200182805461097a906118f3565b80156109c75780601f1061099c576101008083540402835291602001916109c7565b820191906000526020600020905b8154815290600101906020018083116109aa57829003601f168201915b505050505081526020016004820180546109e0906118f3565b80601f0160208091040260200160405190810160405280929190818152602001828054610a0c906118f3565b8015610a595780601f10610a2e57610100808354040283529160200191610a59565b820191906000526020600020905b815481529060010190602001808311610a3c57829003601f168201915b50505091909252505050604081015160608201516080909201519097919650945092505050565b6004602052600090815260409020546001600160a01b031681565b6003602052600090815260409020546001600160a01b031681565b6001600160a01b0381811660009081526001602052604081205490918291606091839116610af65760405162461bcd60e51b81526004016102c89061148f565b6001600160a01b03858116600090815260046020526040902054163314610b2f5760405162461bcd60e51b81526004016102c8906116d9565b6001600160a01b038086166000908152600160208181526040808420815160608101835281549096168652928301549185019190915260028201805493949391840191610b7b906118f3565b80601f0160208091040260200160405190810160405280929190818152602001828054610ba7906118f3565b8015610bf45780601f10610bc957610100808354040283529160200191610bf4565b820191906000526020600020905b815481529060010190602001808311610bd757829003601f168201915b50505091909252505081516020808401516040948501516001600160a01b039b8c16600090815260049093529490912054919a909993985092169550909350505050565b336000908152602081905260409020546001600160a01b0316610c6d5760405162461bcd60e51b81526004016102c890611548565b3360009081526020818152604090912083519091610c929160028401918601906110a4565b508151610ca890600383019060208501906110a4565b5060405133907f2c3800f2a56615b94254b7c99b43479f24a657bcb50caaf0bf886fac5e9d0b6a90600090a2505050565b336000908152600260205260409020546001600160a01b0316610d0e5760405162461bcd60e51b81526004016102c89061162c565b6001600160a01b038281166000908152600160205260409020541615610d465760405162461bcd60e51b81526004016102c890611511565b604080516060810182526001600160a01b0384811680835260006020808501828152858701888152938352600180835296909220855181546001600160a01b031916951694909417845590519483019490945551805192939192610db092600285019201906110a4565b5050506001600160a01b03821660008181526004602052604080822080546001600160a01b0319163390811790915590519092917fc916a285590c18b033d68ec8dbf57ff5355958c88ec49a3912c3a257d1a3709e91a35050565b34670de0b6b3a764000014610e325760405162461bcd60e51b81526004016102c890611884565b336000908152602081905260409020546001600160a01b031615610e685760405162461bcd60e51b81526004016102c8906115fd565b6001600160a01b0381811660009081526002602052604090205416610e9f5760405162461bcd60e51b81526004016102c890611578565b6040516001600160a01b03821690600090670de0b6b3a76400009082818181858883f19350505050158015610ed8573d6000803e3d6000fd5b506040805160a08101909152338082526020820190610f0190670de0b6b3a764000090316118dc565b8152602080820187905260408083018790526060909201859052336000908152808252829020835181546001600160a01b0319166001600160a01b03909116178155838201516001820155918301518051610f6292600285019201906110a4565b5060608201518051610f7e9160038401916020909101906110a4565b5060808201518051610f9a9160048401916020909101906110a4565b50503360008181526003602052604080822080546001600160a01b0319166001600160a01b03871690811790915590519093507fc82a107b146e523ab812d62a4e1ca9d3a83cb2a034b209d6f1bfff67a47d015d9190a350505050565b336000908152602081905260408120546001600160a01b03161561102e575033600090815260208190526040902060010154611062565b336000908152600160205260409020546001600160a01b031615610447575033600090815260016020819052604090912001545b90565b508054611071906118f3565b6000825580601f1061108357506110a1565b601f0160209004906000526020600020908101906110a19190611128565b50565b8280546110b0906118f3565b90600052602060002090601f0160209004810192826110d25760008555611118565b82601f106110eb57805160ff1916838001178555611118565b82800160010185558215611118579182015b828111156111185782518255916020019190600101906110fd565b50611124929150611128565b5090565b5b808211156111245760008155600101611129565b80356001600160a01b038116811461115457600080fd5b919050565b600082601f830112611169578081fd5b813567ffffffffffffffff8082111561118457611184611944565b604051601f8301601f1916810160200182811182821017156111a8576111a8611944565b6040528281528483016020018610156111bf578384fd5b82602086016020830137918201602001929092529392505050565b6000602082840312156111eb578081fd5b6111f48261113d565b9392505050565b6000806040838503121561120d578081fd5b6112168361113d565b9150602083013567ffffffffffffffff811115611231578182fd5b61123d85828601611159565b9150509250929050565b600060208284031215611258578081fd5b813567ffffffffffffffff81111561126e578182fd5b61127a84828501611159565b949350505050565b60008060408385031215611294578182fd5b823567ffffffffffffffff808211156112ab578384fd5b6112b786838701611159565b935060208501359150808211156112cc578283fd5b5061123d85828601611159565b600080600080608085870312156112ee578182fd5b843567ffffffffffffffff80821115611305578384fd5b61131188838901611159565b95506020870135915080821115611326578384fd5b61133288838901611159565b94506040870135915080821115611347578384fd5b5061135487828801611159565b9250506113636060860161113d565b905092959194509250565b60008151808452815b8181101561139357602081850181015186830182015201611377565b818111156113a45782602083870101525b50601f01601f19169290920160200192915050565b6001600160a01b0391909116815260200190565b600060018060a01b0385168252836020830152606060408301526113f4606083018461136e565b95945050505050565b600060018060a01b03808716835285602084015260806040840152611425608084018661136e565b915080841660608401525095945050505050565b6000602082526111f4602083018461136e565b60006060825261145f606083018661136e565b8281036020840152611471818661136e565b90508281036040840152611485818561136e565b9695505050505050565b60208082526019908201527f536f636f727269737461206e616f20656e636f6e747261646f00000000000000604082015260600190565b6020808252602b908201527f536f6d656e746520696e737469747569636f657320706f64656d206578636c7560408201526a697220636c69656e74657360a81b606082015260800190565b60208082526018908201527f536f636f727269737461206a61206361646173747261646f0000000000000000604082015260600190565b602080825260169082015275436c69656e7465206e616f20656e636f6e747261646f60501b604082015260600190565b6020808252601a908201527f496e73746974756963616f206e616f20656e636f6e7472616461000000000000604082015260600190565b6020808252602e908201527f536f6d656e746520696e737469747569636f657320706f64656d206578636c7560408201526d697220736f636f7272697374617360901b606082015260800190565b602080825260159082015274436c69656e7465206a61206361646173747261646f60581b604082015260600190565b60208082526030908201527f536f6d656e746520696e737469747569636f657320706f64656d20636164617360408201526f7472617220736f636f7272697374617360801b606082015260800190565b60208082526039908201527f536f6d656e7465206120696e73746974756963616f206173736f63696164612060408201527f706f6465206578636c756972206f20736f636f72726973746100000000000000606082015260800190565b60208082526049908201527f536f6d656e7465206120696e73746974756963616f206173736f63696164612060408201527f706f6465206163657373617220617320696e666f726d61636f657320646f20736060820152686f636f72726973746160b81b608082015260a00190565b60208082526032908201527f456e64657265636f206e616f206361646173747261646f20636f6d6f20636c69604082015271656e7465206f7520736f636f72726973746160701b606082015260800190565b60208082526019908201527f496e73746974756963616f206a61206361646173747261646100000000000000604082015260600190565b60208082526036908201527f536f6d656e7465206120696e73746974756963616f206173736f636961646120604082015275706f6465206578636c756972206f20636c69656e746560501b606082015260800190565b6020808252603b908201527f536f6d656e746520736f636f7272697374617320706f64656d2061636573736160408201527f7220617320696e666f726d61636f657320646f20636c69656e74650000000000606082015260800190565b60208082526019908201527f4f20636164617374726f20726571756572203120657468657200000000000000604082015260600190565b90815260200190565b600082198211156118d7576118d761192e565b500190565b6000828210156118ee576118ee61192e565b500390565b60028104600182168061190757607f821691505b6020821081141561192857634e487b7160e01b600052602260045260246000fd5b50919050565b634e487b7160e01b600052601160045260246000fd5b634e487b7160e01b600052604160045260246000fdfea2646970667358221220853dabb1eb70b54ef123782fb7ed9aec96bda45cbf103f4b3485b57c55ce116a64736f6c63430008000033",
  "immutableReferences": {},
  "source": "// SPDX-License-Identifier: MIT\npragma solidity ^0.8.0;\n\ncontract Healthchain {\n    struct Cliente {\n        address payable cliente;\n        uint saldo;\n        string comorbidades;\n        string alergias;\n        string tipoSanguineo;\n    }\n\n    struct Socorrista {\n        address payable socorrista;\n        uint saldo;\n        string crm;\n    }\n\n    struct InstituicaoSaude {\n        address payable instituicaoSaude;\n        uint saldo;\n        string nomeInstituicao;\n    }\n\n    mapping(address => Cliente) private clientes;\n    mapping(address => Socorrista) private socorristas;\n    mapping(address => InstituicaoSaude) private instituicoes;\n\n    mapping(address => address) public clienteParaInstituicao;\n    mapping(address => address) public socorristaParaInstituicao;\n\n    // Eventos\n    event ClienteCadastrado(address indexed cliente, address indexed instituicao);\n    event ClienteAtualizado(address indexed cliente);\n    event ClienteExcluido(address indexed cliente);\n    event SocorristaCadastrado(address indexed socorrista, address indexed instituicao);\n    event SocorristaExcluido(address indexed socorrista);\n    event InstituicaoCadastrada(address indexed instituicao, string nome);\n    event DepositoRealizado(address indexed conta, uint256 valor);\n\n    // Funo para cadastrar uma nova instituio de sade\n    function cadastrarInstituicao(string memory _nomeInstituicao) public {\n        require(instituicoes[msg.sender].instituicaoSaude == address(0), \"Instituicao ja cadastrada\");\n        instituicoes[msg.sender] = InstituicaoSaude(\n            payable(msg.sender),\n            0,\n            _nomeInstituicao\n        );\n        emit InstituicaoCadastrada(msg.sender, _nomeInstituicao);\n    }\n\n    // Funo para cadastrar um novo cliente\n    function cadastrarCliente(\n        string memory _comorbidades,\n        string memory _alergias,\n        string memory _tipoSanguineo,\n        address _instituicao\n    ) public payable {\n        require(msg.value == 1 ether, \"O cadastro requer 1 ether\");\n        require(clientes[msg.sender].cliente == address(0), \"Cliente ja cadastrado\");\n        require(instituicoes[_instituicao].instituicaoSaude != address(0), \"Instituicao nao encontrada\");\n\n        // Transferir 1 ether para a instituio\n        payable(_instituicao).transfer(1 ether);\n\n        clientes[msg.sender] = Cliente(\n            payable(msg.sender),\n            msg.sender.balance - 1 ether,  // O saldo do cliente  o saldo da carteira menos 1 ether\n            _comorbidades,\n            _alergias,\n            _tipoSanguineo\n        );\n        clienteParaInstituicao[msg.sender] = _instituicao;\n        emit ClienteCadastrado(msg.sender, _instituicao);\n    }\n\n    // Funo para editar as informaes de um cliente\n    function editarCliente(\n        string memory _comorbidades,\n        string memory _alergias\n    ) public {\n        require(clientes[msg.sender].cliente != address(0), \"Cliente nao encontrado\");\n        Cliente storage cliente = clientes[msg.sender];\n        cliente.comorbidades = _comorbidades;\n        cliente.alergias = _alergias;\n        emit ClienteAtualizado(msg.sender);\n    }\n\n    // Funo para excluir um cliente\n    function excluirCliente(address _cliente) public {\n        require(instituicoes[msg.sender].instituicaoSaude != address(0), \"Somente instituicoes podem excluir clientes\");\n        require(clientes[_cliente].cliente != address(0), \"Cliente nao encontrado\");\n        require(clienteParaInstituicao[_cliente] == msg.sender, \"Somente a instituicao associada pode excluir o cliente\");\n        delete clientes[_cliente];\n        delete clienteParaInstituicao[_cliente];\n        emit ClienteExcluido(_cliente);\n    }\n\n    // Funo para cadastrar um novo socorrista\n    function cadastrarSocorrista(\n        address _socorrista,\n        string memory _crm\n    ) public {\n        require(instituicoes[msg.sender].instituicaoSaude != address(0), \"Somente instituicoes podem cadastrar socorristas\");\n        require(socorristas[_socorrista].socorrista == address(0), \"Socorrista ja cadastrado\");\n\n        socorristas[_socorrista] = Socorrista(\n            payable(_socorrista),\n            0,\n            _crm\n        );\n        socorristaParaInstituicao[_socorrista] = msg.sender;\n        emit SocorristaCadastrado(_socorrista, msg.sender);\n    }\n\n    // Funo para excluir um socorrista\n    function excluirSocorrista(address _socorrista) public {\n        require(instituicoes[msg.sender].instituicaoSaude != address(0), \"Somente instituicoes podem excluir socorristas\");\n        require(socorristas[_socorrista].socorrista != address(0), \"Socorrista nao encontrado\");\n        require(socorristaParaInstituicao[_socorrista] == msg.sender, \"Somente a instituicao associada pode excluir o socorrista\");\n        delete socorristas[_socorrista];\n        delete socorristaParaInstituicao[_socorrista];\n        emit SocorristaExcluido(_socorrista);\n    }\n\n    // Funo para depositar saldo na conta de um cliente ou socorrista\n    function depositar() public payable {\n        if (clientes[msg.sender].cliente != address(0)) {\n            clientes[msg.sender].saldo += msg.value;\n        } else if (socorristas[msg.sender].socorrista != address(0)) {\n            socorristas[msg.sender].saldo += msg.value;\n        } else {\n            revert(\"Endereco nao cadastrado como cliente ou socorrista\");\n        }\n        emit DepositoRealizado(msg.sender, msg.value);\n    }\n\n    // Funo para obter o saldo de um cliente ou socorrista\n    function getSaldo() public view returns (uint256) {\n        if (clientes[msg.sender].cliente != address(0)) {\n            return clientes[msg.sender].saldo;\n        } else if (socorristas[msg.sender].socorrista != address(0)) {\n            return socorristas[msg.sender].saldo;\n        } else {\n            revert(\"Endereco nao cadastrado como cliente ou socorrista\");\n        }\n    }\n\n    // Funo para obter informaes de um cliente - Apenas socorristas podem chamar esta funo\n    function getCliente(address _cliente) public view returns (\n        string memory,\n        string memory,\n        string memory\n    ) {\n        require(socorristas[msg.sender].socorrista != address(0), \"Somente socorristas podem acessar as informacoes do cliente\");\n        require(clientes[_cliente].cliente != address(0), \"Cliente nao encontrado\");\n        Cliente memory cliente = clientes[_cliente];\n        return (\n            cliente.comorbidades,\n            cliente.alergias,\n            cliente.tipoSanguineo\n        );\n    }\n\n    // Funo para obter informaes de um socorrista - Apenas a instituio associada pode chamar esta funo\n    function getSocorrista(address _socorrista) public view returns (\n        address,\n        uint256,\n        string memory,\n        address\n    ) {\n        require(socorristas[_socorrista].socorrista != address(0), \"Socorrista nao encontrado\");\n        require(socorristaParaInstituicao[_socorrista] == msg.sender, \"Somente a instituicao associada pode acessar as informacoes do socorrista\");\n        Socorrista memory socorrista = socorristas[_socorrista];\n        return (\n            socorrista.socorrista,\n            socorrista.saldo,\n            socorrista.crm,\n            socorristaParaInstituicao[_socorrista]\n        );\n    }\n\n    // Funo para obter informaes de uma instituio de sade\n    function getInstituicao(address _instituicao) public view returns (\n        address,\n        uint256,\n        string memory\n    ) {\n        require(instituicoes[_instituicao].instituicaoSaude != address(0), \"Instituicao nao encontrada\");\n        InstituicaoSaude memory instituicao = instituicoes[_instituicao];\n        return (\n            instituicao.instituicaoSaude,\n            instituicao.saldo,\n            instituicao.nomeInstituicao\n        );\n    }\n}",
  "sourcePath": "/mnt/c/Users/Lucas/desktop/Blockchain-project/contracts/HealthChain.sol",
  "compiler": {
    "name": "solc",
    "version": "0.8.0+commit.c7dfd78e.Emscripten.clang"
  },
  "schemaVersion": "3.4.16",
  "updatedAt": "2024-08-09T02:38:50.958Z",
  "devdoc": {
    "kind": "dev",
    "methods": {},
    "version": 1
  },
  "userdoc": {
    "kind": "user",
    "methods": {},
    "version": 1
  }
}